:100000000C942A000C9447000C9447000C94470071
:100010000C9447000C9447000C9447000C94470044
:100020000C9447000C9447000C947D0A0C94310A00
:100030000C9447000C9447000C9447000C94470024
:100040000C9447000C9447000C9447000C94470014
:100050000C94470011241FBECFE5D8E0DEBFCDBF12
:1000600010E0A0E6B0E0ECEEF4E202C005900D92E4
:10007000AC36B107D9F710E0ACE6B0E001C01D9294
:10008000A437B107E1F70E94890F0C9474120C9405
:100090000000EF92FF920F931F937B018C0120E0F1
:1000A00030E040E05FE40E94F50388238CF0C80153
:1000B000B70120E030E040E05FE40E94C1010E940F
:1000C00055049B01AC01205030404040504806C0D0
:1000D000C801B7010E9455049B01AC01B901CA01D6
:1000E0001F910F91FF90EF900895A0E0B0E0EBE733
:1000F000F0E00C943D12DC012B01FA019C9192304E
:1001000008F439C1EB018881823008F433C194309E
:1001100069F4843009F02FC111969C91119789815F
:10012000981709F428C1A0E6B0E025C1843009F48D
:1001300021C18230A9F4923009F01DC19A01AD01AC
:1001400088E0EA010990AE01E90109929E0181501F
:10015000C1F7E201898111969C918923818308C1AD
:10016000923009F407C112962D903C901397EB0141
:100170008A819B811496AD90BD90CD90DC901797AD
:10018000EC80FD800E811F819101281B390BB90184
:1001900037FF04C066277727621B730B6032710537
:1001A0000CF061C0121613066CF537014801062EDB
:1001B00004C096948794779467940A94D2F721E0C8
:1001C00030E040E050E004C0220F331F441F551FB1
:1001D0006A95D2F721503040404050402E213F21B7
:1001E00040235123211531054105510521F021E01E
:1001F00030E040E050E079018A01E628F72808293C
:1002000019293CC0232BD1F1260E371E350146019A
:10021000062E04C096948794779467940A94D2F734
:1002200021E030E040E050E004C0220F331F441FC3
:10023000551F6A95D2F721503040404050402A2146
:100240003B214C215D21211531054105510521F04E
:1002500021E030E040E050E059016A01A628B728CB
:10026000C828D9280BC0821593052CF01C01AA249C
:10027000BB24650103C0EE24FF24870111969C91E5
:10028000D20111968C91981709F445C0992339F041
:10029000A80197012A193B094C095D0906C0A6016E
:1002A00095012E193F09400B510B57FD08C01182D3
:1002B0003382228224833583468357831DC081E0A5
:1002C00081833382228288279927DC01821B930B4A
:1002D000A40BB50B84839583A683B7830DC0220F2F
:1002E000331F441F551F24833583468357838281E0
:1002F000938101979383828324813581468157813D
:10030000DA01C9010197A109B1098F5F9F4FAF4F72
:10031000BF4328F30BC0918333822282EA0CFB1C7B
:100320000C1D1D1DE482F5820683178383E0808304
:10033000248135814681578157FF1AC0C901AA27F8
:1003400097FDA095BA2F81709070A070B0705695EF
:10035000479537952795822B932BA42BB52B848318
:100360009583A683B7838281938101969383828349
:10037000DF0101C0D201CD01CDB7DEB7E2E10C94BF
:100380005912A0E2B0E0E7ECF1E00C944912698365
:100390007A838B839C832D833E834F835887E9E048
:1003A000EE2EF12CEC0EFD1ECE010196B7010E943F
:1003B0007E058E010F5E1F4FCE010596B8010E948B
:1003C0007E058A8991E089278A8BC701B801AE0131
:1003D000475E5F4F0E9475000E94A904A096E6E068
:1003E0000C946512A0E2B0E0E8EFF1E00C94491241
:1003F00069837A838B839C832D833E834F835887C5
:10040000F9E0EF2EF12CEC0EFD1ECE010196B701A6
:100410000E947E058E010F5E1F4FCE010596B8012A
:100420000E947E05C701B801AE01475E5F4F0E9482
:1004300075000E94A904A096E6E00C946512A0E263
:10044000B0E0E5E2F2E00C943D1269837A838B839D
:100450009C832D833E834F835887CE010196BE0136
:10046000675F7F4F0E947E05CE010596BE016F5EDD
:100470007F4F0E947E059985923088F0898982306D
:10048000C8F0943019F4823051F404C0843029F457
:10049000923081F480E690E0C6C0923049F420E0CA
:1004A0009A858A89981321E02A87CE010996BBC0D4
:1004B000823049F420E09A858A89981321E02A8BBA
:1004C000CE014196B0C02D843E844F8458886D88FB
:1004D0007E888F88988CEE24FF248701AA24BB2471
:1004E000650140E050E060E070E0E0E0F0E0C10174
:1004F00081709070892BE9F0E60CF71C081D191D1E
:100500009A01AB012A0D3B1D4C1D5D1D80E090E062
:10051000A0E0B0E0E614F7040805190520F481E036
:1005200090E0A0E0B0E0BA01A901480F591F6A1F8E
:100530007B1FAA0CBB1CCC1CDD1C97FE08C081E0F5
:1005400090E0A0E0B0E0A82AB92ACA2ADB2A3196B6
:10055000E032F10549F0660C771C881C991C569412
:10056000479437942794C3CFFA85EA892B893C892D
:100570008B859C85280F391F2E5F3F4F17C0CA01FE
:1005800081709070892B61F016950795F794E79428
:1005900080E090E0A0E0B0E8E82AF92A0A2B1B2BC3
:1005A00076956795579547952F5F3F4F77FDE7CF36
:1005B0000CC0440F551F661F771F17FD4160EE0CDE
:1005C000FF1C001F111F21503040403090E05907A0
:1005D00090E0690790E4790760F32B8F3C8FDB0193
:1005E000CA018F779070A070B07080349105A1051A
:1005F000B10561F447FD0AC0E114F10401051105DC
:1006000029F0405C5F4F6F4F7F4F40781A8EFE1786
:1006100011F081E08A8F4D8F5E8F6F8F78A383E01A
:10062000898FCE0149960E94A904A096E2E10C941C
:100630005912A8E1B0E0EFE1F3E00C9445126983B0
:100640007A838B839C832D833E834F835887B9E0C5
:10065000EB2EF12CEC0EFD1ECE010196B7010E948F
:100660007E058E010F5E1F4FCE010596B8010E94D8
:100670007E052985223008F47EC03989323010F495
:10068000B8017CC08A859A8989278A87243011F02D
:10069000223031F4231709F06EC060E670E06EC0BE
:1006A000343039F41D861E861F86188A1C861B86E8
:1006B00004C0323021F484E08987B7015FC02B8504
:1006C0003C858B899C89281B390B3C872B87ED84C3
:1006D000FE840F851889AD88BE88CF88D88CEA142F
:1006E000FB040C051D0540F4EE0CFF1C001F111F40
:1006F000215030403C872B8720E030E040E050E044
:1007000080E090E0A0E0B0E460E070E0EA14FB0478
:100710000C051D0540F0282B392B4A2B5B2BEA18C2
:10072000FB080C091D09B695A79597958795EE0CC2
:10073000FF1C001F111F6F5F7F4F6F31710531F775
:10074000DA01C9018F779070A070B0708034910584
:10075000A105B10561F427FD0AC0E114F10401050A
:10076000110529F0205C3F4F4F4F5F4F20782D87B8
:100770003E874F87588BBE01675F7F4FCB010E943A
:10078000A9046896EAE00C946112A8E1B0E0EBECF1
:10079000F3E00C94491269837A838B839C832D83C5
:1007A0003E834F83588789E0E82EF12CEC0EFD1E26
:1007B000CE010196B7010E947E058E010F5E1F4F8C
:1007C000CE010596B8010E947E058985823040F0F1
:1007D0008989823028F0C701B8010E94F60501C05E
:1007E0008FEF6896E6E00C946512A8E1B0E0EBEFBD
:1007F000F3E00C94491269837A838B839C832D8365
:100800003E834F83588789E0E82EF12CEC0EFD1EC5
:10081000CE010196B7010E947E058E010F5E1F4F2B
:10082000CE010596B8010E947E058985823040F090
:100830008989823028F0C701B8010E94F60501C0FD
:100840008FEF6896E6E00C946512A8E1B0E0EBE269
:10085000F4E00C94491269837A838B839C832D8303
:100860003E834F83588789E0E82EF12CEC0EFD1E65
:10087000CE010196B7010E947E058E010F5E1F4FCB
:10088000CE010596B8010E947E058985823040F030
:100890008989823028F0C701B8010E94F60501C09D
:1008A00081E06896E6E00C946512ACE0B0E0EBE520
:1008B000F4E00C944D1269837A838B839C83CE0180
:1008C0000196BE016B5F7F4F0E947E058D81823055
:1008D00061F1823050F1843021F48E81882351F10E
:1008E0002EC02F81388537FD20C06E812F31310514
:1008F0001CF06623F9F023C08EE190E0821B930B7D
:1009000029853A854B855C8504C056954795379572
:1009100027958A95D2F76623B1F05095409530958A
:1009200021953F4F4F4F5F4F0EC020E030E040E039
:1009300050E009C02FEF3FEF4FEF5FE704C020E02A
:1009400030E040E050E8B901CA012C96E2E00C9496
:100950006912DF92EF92FF920F931F93FC01E480E4
:10096000F58006811781D1808081823048F480E053
:1009700090E0A0E1B0E0E82AF92A0A2B1B2BA5C0E1
:10098000843009F49FC0823021F4EE24FF248701D3
:1009900005C0E114F1040105110519F4E0E0F0E0EF
:1009A00096C0628173819FEF623879070CF05BC05B
:1009B00022E83FEF261B370B2A3131052CF020E0CF
:1009C00030E040E050E02AC0B801A701022E04C088
:1009D00076956795579547950A94D2F781E090E010
:1009E000A0E0B0E004C0880F991FAA1FBB1F2A9582
:1009F000D2F70197A109B1098E219F21A023B1232C
:100A00000097A105B10521F081E090E0A0E0B0E001
:100A10009A01AB01282B392B4A2B5B2BDA01C90138
:100A20008F779070A070B07080349105A105B105EA
:100A300039F427FF09C0205C3F4F4F4F5F4F04C080
:100A4000215C3F4F4F4F5F4FE0E0F0E02030A0E0EF
:100A50003A07A0E04A07A0E45A0710F0E1E0F0E00E
:100A600079018A0127C06038710564F5FB01E158FE
:100A7000FF4FD801C7018F779070A070B07080349D
:100A80009105A105B10539F4E7FE0DC080E490E0C1
:100A9000A0E0B0E004C08FE390E0A0E0B0E0E80E9A
:100AA000F91E0A1F1B1F17FF05C016950795F7941F
:100AB000E794319687E016950795F794E7948A9521
:100AC000D1F705C0EE24FF248701EFEFF0E06E2F91
:100AD000679566276795902F9F77D794DD24D794E5
:100AE0008E2F8695492F462B582F5D29B701CA01B5
:100AF0001F910F91FF90EF90DF900895FC01DB01B3
:100B0000408151812281622F6F7770E0221F22275E
:100B1000221F9381892F880F822B282F30E0991F65
:100B20009927991F11969C93119721153105A9F5C5
:100B3000411551056105710511F482E037C082E865
:100B40009FEF13969C938E9312979A01AB0167E0E7
:100B5000220F331F441F551F6A95D1F783E08C93F2
:100B60000DC0220F331F441F551F12968D919C916B
:100B70001397019713969C938E931297203080E0E1
:100B8000380780E0480780E4580758F314962D93FF
:100B90003D934D935C93179708952F3F310579F45A
:100BA000411551056105710519F484E08C93089590
:100BB00064FF03C081E08C9312C01C9210C02F57B9
:100BC000304013963C932E93129783E08C9387E0EA
:100BD000440F551F661F771F8A95D1F770641496CE
:100BE0004D935D936D937C93179708951F93DC014C
:100BF000FB019C91923008F447C08081823008F458
:100C000043C0943051F411961C91843099F5818140
:100C1000682F70E0611B71093FC0843021F0923071
:100C200031F48230B9F18181882389F12DC0119688
:100C30001C9111978230F1F081811817D9F4129626
:100C40002D913C911397828193818217930794F0A1
:100C500028173907BCF014968D919D910D90BC9189
:100C6000A02D2481358146815781281739074A07ED
:100C70005B0718F4112341F00AC082179307A407F9
:100C8000B50740F4112319F061E070E005C06FEF83
:100C90007FEF02C060E070E0CB011F910895DF9309
:100CA000CF9300D0CDB7DEB789836A830E94C50792
:100CB00081E560E00E94190889810E9471088A819B
:100CC0000E9471080E9406090F900F90CF91DF914A
:100CD0000895DF93CF9300D000D00F92CDB7DEB749
:100CE0008A837C836B834D830E94C50781E560E026
:100CF0000E9419088A810E94710819820EC0898198
:100D0000282F30E08B819C81FC01E20FF31F808152
:100D10000E94710889818F5F898399818D819817DD
:100D200070F30E9406090F900F900F900F900F9094
:100D3000CF91DF910895DF93CF9300D00F92CDB77D
:100D4000DEB789837B836A830E94C50781E560E003
:100D50000E94190889810E9471080E94C50781E5D7
:100D600061E00E9419088A819B810E94D0080E943C
:100D700006090F900F900F90CF91DF910895DF93A8
:100D8000CF9300D000D00F92CDB7DEB78A837C839B
:100D90006B834D830E94C50781E560E00E941908BE
:100DA0008A810E9471080E94C50781E561E00E9466
:100DB000190819820CC08981282F30E08B819C8111
:100DC000820F931F0E949A0889818F5F898389818E
:100DD000282F30E08D81882F90E001972817390760
:100DE00054F38D81882F90E09C01215030408B81FD
:100DF0009C81820F931F0E94D0080E9406090F90C9
:100E00000F900F900F900F90CF91DF910895DF9387
:100E1000CF93CDB7DEB7ADE2B0E0EDE2F0E0808198
:100E20008B7F8C93ADE2B0E0EDE2F0E08081877FD4
:100E30008C93ADE2B0E0EDE2F0E0808180618C93D4
:100E4000AEE2B0E0EEE2F0E080818E7F8C93ADE226
:100E5000B0E0EDE2F0E080818D7F8C93ADE2B0E018
:100E6000EDE2F0E080818E7F8C93ADE2B0E0EDE2C8
:100E7000F0E0808180648C93CF91DF910895DF93BF
:100E8000CF93CDB7DEB7ADE2B0E0EDE2F0E0808128
:100E90008F7E8C93ADE2B0E0EDE2F0E080818F7D5B
:100EA0008C93ADE2B0E0EDE2F0E0808180648C9361
:100EB000CF91DF910895DF93CF930F92CDB7DEB737
:100EC0008983EFE2F0E089818083EEE2F0E08081C7
:100ED0008823DCF7EFE2F0E080810F90CF91DF9183
:100EE0000895DF93CF930F92CDB7DEB78983E0E209
:100EF000F0E082E08083A1E2B0E0E1E2F0E0808116
:100F00008D7F8C93A1E2B0E0E1E2F0E080818E7F02
:100F10008C938981882369F0A2E2B0E0E2E2F0E0FC
:100F20008081282F8981882F90E0880F991F822B3C
:100F30008C93A6E5B0E0E6E5F0E0808184608C93D8
:100F40000F90CF91DF910895DF93CF930F92CDB79C
:100F5000DEB789838981882369F0A2E2B0E0E2E20A
:100F6000F0E08081282F8981882F90E0880F991FD9
:100F7000822B8C93A6E5B0E0E6E5F0E0808184600A
:100F80008C930F90CF91DF910895DF93CF930F92C1
:100F9000CDB7DEB71982A6E5B0E0E6E5F0E08081E6
:100FA00080628C93A6E5B0E0E6E5F0E080818068A1
:100FB0008C93E6E5F0E080818823DCF7E1E2F0E065
:100FC0008081882F90E0887F90708830910511F0A3
:100FD00081E0898389810F90CF91DF910895DF931C
:100FE000CF930F92CDB7DEB71982A6E5B0E0E6E564
:100FF000F0E0808180628C93A6E5B0E0E6E5F0E069
:10100000808180688C93E6E5F0E080818823DCF7BE
:10101000E1E2F0E08081882F90E0887F9070883056
:10102000910511F082E0898389810F90CF91DF9142
:101030000895DF93CF9300D000D0CDB7DEB78B8378
:101040006C831A828C81882321F48B81880F898399
:101050000AC08C81813039F48B81882F90E0880F11
:10106000991F81608983E3E2F0E089818083A6E5AE
:10107000B0E0E6E5F0E080818F7D8C93A6E5B0E0FE
:10108000E6E5F0E0808180688C93E6E5F0E0808121
:101090008823DCF7E1E2F0E08081882F90E0887F10
:1010A00090708831910531F08C81882319F483E0A8
:1010B0008A830FC0E1E2F0E08081882F90E0887F92
:1010C00090708034910529F08C81813011F484E096
:1010D0008A838A810F900F900F900F90CF91DF91AC
:1010E0000895DF93CF9300D0CDB7DEB78A831982FE
:1010F000E3E2F0E08A818083A6E5B0E0E6E5F0E097
:10110000808180688C93E6E5F0E080818823DCF7BD
:10111000E1E2F0E08081882F90E0887F9070883253
:10112000910511F085E0898389810F900F90CF910F
:10113000DF910895DF93CF9300D00F92CDB7DEB744
:101140009B838A831982A6E5B0E0E6E5F0E0808122
:1011500080648C93A6E5B0E0E6E5F0E080818068ED
:101160008C93E6E5F0E080818823DCF7E1E2F0E0B3
:101170008081882F90E0887F90708035910519F0EC
:1011800086E0898306C0E3E2F0E08081EA81FB81AA
:10119000808389810F900F900F90CF91DF910895F8
:1011A000DF93CF9300D00F92CDB7DEB79B838A83B6
:1011B0001982A6E5B0E0E6E5F0E080818F7B8C93B4
:1011C000A6E5B0E0E6E5F0E0808180688C93E6E596
:1011D000F0E080818823DCF7E1E2F0E08081882F75
:1011E00090E0887F90708835910519F086E08983BA
:1011F00006C0E3E2F0E08081EA81FB81808389819F
:101200000F900F900F90CF91DF910895DF93CF93C0
:10121000CDB7DEB7A6E5B0E0E6E5F0E0808180611D
:101220008C93A6E5B0E0E6E5F0E0808180688C93E1
:10123000CF91DF910895DF93CF9300D000D0CDB749
:10124000DEB789836A838981282F30E03C832B8332
:101250008B819C818130910509F442C02B813C81B6
:10126000223031052CF48B819C81009761F046C0BF
:101270002B813C8122303105A9F08B819C81833008
:101280009105F9F03BC0A3E5B0E0E3E5F0E0808133
:101290008F7B8C93A3E5B0E0E3E5F0E08081877F6E
:1012A0008C932CC0A3E5B0E0E3E5F0E080818F7B78
:1012B0008C93A3E5B0E0E3E5F0E0808188608C9357
:1012C0001DC0A3E5B0E0E3E5F0E0808180648C938D
:1012D000A3E5B0E0E3E5F0E0808188608C930EC088
:1012E000A3E5B0E0E3E5F0E0808180648C93A3E5C2
:1012F000B0E0E3E5F0E08081877F8C93A3E5B0E088
:10130000E3E5F0E08081887F8C93A3E5B0E0E3E53E
:10131000F0E090818A81892B8C930F900F900F9031
:101320000F90CF91DF910895DF93CF93CDB7DEB7C4
:10133000A9E5B0E0E9E5F0E0808181608C93CF9190
:10134000DF910895DF93CF93CDB7DEB7A9E5B0E085
:10135000E9E5F0E080818E7F8C93CF91DF91089555
:10136000DF93CF930F92CDB7DEB78983ECE5F0E042
:10137000898180830F90CF91DF910895DF93CF9380
:1013800000D00F92CDB7DEB789838981282F30E056
:101390003B832A838A819B81009731F02A813B819C
:1013A0002130310581F01DC0A3E5B0E0E3E5F0E0B8
:1013B000808180628C93A3E5B0E0E3E5F0E080817A
:1013C00080618C930EC0A3E5B0E0E3E5F0E080819E
:1013D00080628C93A3E5B0E0E3E5F0E080818F7E4E
:1013E0008C930F900F900F90CF91DF910895DF9322
:1013F000CF9300D00F92CDB7DEB79B838A8381E075
:1014000089838A819B81009739F08A819B8190939F
:101410006D0080936C0001C0198289810F900F903C
:101420000F90CF91DF910895DF93CF9300D00F926B
:10143000CDB7DEB79B838A8381E089838A819B81D4
:10144000009739F08A819B8190936F0080936E00A2
:1014500001C0198289810F900F900F90CF91DF9179
:1014600008951F920F920FB60F9211242F933F935E
:101470004F935F936F937F938F939F93AF93BF939C
:10148000EF93FF93DF93CF93CDB7DEB780917000DA
:1014900090917100019690937100809370008091FB
:1014A0007000909171002FE08334920799F4E2E587
:1014B000F0E080EC808310927100109270008091B7
:1014C0006C0090916D00009729F0E0916C00F09114
:1014D0006D000995CF91DF91FF91EF91BF91AF9191
:1014E0009F918F917F916F915F914F913F912F913C
:1014F0000F900FBE0F901F9018951F920F920FB66E
:101500000F9211242F933F934F935F936F937F9389
:101510008F939F93AF93BF93EF93FF93DF93CF93FB
:10152000CDB7DEB7809172009091730001969093D1
:10153000730080937200809172009091730027E293
:101540008031920779F410927300109272008091AA
:101550006E0090916F00009729F0E0916E00F0917D
:101560006F000995CF91DF91FF91EF91BF91AF91FE
:101570009F918F917F916F915F914F913F912F91AB
:101580000F900FBE0F901F901895DF93CF930F927F
:10159000CDB7DEB78983EBE2F0E080818295869556
:1015A0008770882F90E0817090700097A1F3ECE233
:1015B000F0E0898180830F90CF91DF910895DF93D0
:1015C000CF93CDB7DEB7EBE2F0E08081881F8827AC
:1015D000881F8130C1F7ECE2F0E08081CF91DF918C
:1015E0000895DF93CF930F92CDB7DEB7198289812B
:1015F0008068898389818460898389818260898305
:10160000E0E4F0E089818083E9E2F0E083E3808335
:10161000AAE2B0E0EAE2F0E0808180618C93AAE285
:10162000B0E0EAE2F0E0808188608C930F90CF9187
:10163000DF910895DF93CF93CDB7DEB729970FB62B
:10164000F894DEBF0FBECDBF89836A834B838B8145
:10165000282F30E03987288788859985009709F4F5
:1016600076C0288539852130310509F0E4C08981AB
:10167000282F30E03F832E838E819F818234910515
:1016800051F12E813F812334310534F48E819F81C5
:101690008134910561F0CFC02E813F812334310523
:1016A00071F18E819F8184349105E9F1C4C0AAE370
:1016B000B0E0EAE3F0E08081482F8A81282F30E013
:1016C00081E090E0022E02C0880F991F0A94E2F791
:1016D000842B8C93B0C0A7E3B0E0E7E3F0E0808117
:1016E000482F8A81282F30E081E090E0022E02C04E
:1016F000880F991F0A94E2F7842B8C939CC0A4E373
:10170000B0E0E4E3F0E08081482F8A81282F30E0C8
:1017100081E090E0022E02C0880F991F0A94E2F740
:10172000842B8C9388C0A1E3B0E0E1E3F0E08081FA
:10173000482F8A81282F30E081E090E0022E02C0FD
:10174000880F991F0A94E2F7842B8C9374C08981C7
:10175000282F30E03D832C838C819D81823491053C
:1017600061F12C813D812334310534F48C819D81DC
:101770008134910569F05FC02C813D8123343105AE
:1017800089F18C819D818434910509F440C053C056
:10179000AAE3B0E0EAE3F0E08081482F8A81282FB5
:1017A00030E081E090E0022E02C0880F991F0A9479
:1017B000E2F7809584238C933EC0A7E3B0E0E7E393
:1017C000F0E08081482F8A81282F30E081E090E08E
:1017D000022E02C0880F991F0A94E2F78095842395
:1017E0008C9329C0A4E3B0E0E4E3F0E08081482FCB
:1017F0008A81282F30E081E090E0022E02C0880F1D
:10180000991F0A94E2F7809584238C9314C0A1E376
:10181000B0E0E1E3F0E08081482F8A81282F30E0BA
:1018200081E090E0022E02C0880F991F0A94E2F72F
:10183000809584238C9329960FB6F894DEBF0FBE53
:10184000CDBFCF91DF910895DF93CF93CDB7DEB7B2
:1018500029970FB6F894DEBF0FBECDBF89836A8388
:101860004B838B81282F30E039872887888599859D
:10187000009709F476C0288539852130310509F0B3
:10188000E4C08981282F30E03F832E838E819F81A1
:101890008234910551F12E813F812334310534F496
:1018A0008E819F818134910561F0CFC02E813F816F
:1018B0002334310571F18E819F8184349105E9F1E2
:1018C000C4C0ABE3B0E0EBE3F0E08081482F8A8155
:1018D000282F30E081E090E0022E02C0880F991F8F
:1018E0000A94E2F7842B8C93B0C0A8E3B0E0E8E35D
:1018F000F0E08081482F8A81282F30E081E090E05D
:10190000022E02C0880F991F0A94E2F7842B8C9351
:101910009CC0A5E3B0E0E5E3F0E08081482F8A8138
:10192000282F30E081E090E0022E02C0880F991F3E
:101930000A94E2F7842B8C9388C0A2E3B0E0E2E340
:10194000F0E08081482F8A81282F30E081E090E00C
:10195000022E02C0880F991F0A94E2F7842B8C9301
:1019600074C08981282F30E03D832C838C819D8138
:101970008234910561F12C813D812334310534F4A9
:101980008C819D818134910569F05FC02C813D81FE
:101990002334310589F18C819D818434910509F4CA
:1019A00040C053C0ABE3B0E0EBE3F0E08081482FF0
:1019B0008A81282F30E081E090E0022E02C0880F5B
:1019C000991F0A94E2F7809584238C933EC0A8E384
:1019D000B0E0E8E3F0E08081482F8A81282F30E0F2
:1019E00081E090E0022E02C0880F991F0A94E2F76E
:1019F000809584238C9329C0A5E3B0E0E5E3F0E073
:101A00008081482F8A81282F30E081E090E0022EEB
:101A100002C0880F991F0A94E2F7809584238C9363
:101A200014C0A2E3B0E0E2E3F0E08081482F8A81B5
:101A3000282F30E081E090E0022E02C0880F991F2D
:101A40000A94E2F7809584238C9329960FB6F89434
:101A5000DEBF0FBECDBFCF91DF910895DF93CF934F
:101A600000D000D000D0CDB7DEB789836A835C8315
:101A70004B838981282F30E03E832D834D815E8109
:101A80004234510559F18D819E818334910534F49E
:101A90002D813E812134310569F05BC04D815E812D
:101AA0004334510579F18D819E818434910509F487
:101AB0003DC04FC0E9E3F0E08081282F30E08A810B
:101AC000882F90E0A90102C0559547958A95E2F7C5
:101AD000CA018170EB81FC8180833BC0E6E3F0E0CA
:101AE0008081282F30E08A81882F90E0A90102C0F0
:101AF000559547958A95E2F7CA018170EB81FC8183
:101B0000808327C0E3E3F0E08081282F30E08A81E2
:101B1000882F90E0A90102C0559547958A95E2F774
:101B2000CA018170EB81FC81808313C0E0E3F0E0A7
:101B30008081282F30E08A81882F90E0A90102C09F
:101B4000559547958A95E2F7CA018170EB81FC8132
:101B5000808326960FB6F894DEBF0FBECDBFCF911F
:101B6000DF910895DF93CF9300D000D0CDB7DEB7DB
:101B700089836A838981282F30E03C832B838B8182
:101B80009C8182349105D9F02B813C81233431052D
:101B900034F48B819C818134910561F01EC02B81CE
:101BA0003C812334310581F08B819C818434910503
:101BB00081F013C0EAE3F0E08A8180830EC0E7E39E
:101BC000F0E08A81808309C0E4E3F0E08A818083C9
:101BD00004C0E1E3F0E08A8180830F900F900F90C2
:101BE0000F90CF91DF910895DF93CF9300D000D075
:101BF000CDB7DEB789836A838981282F30E03C83A3
:101C00002B838B819C8182349105D9F02B813C817F
:101C10002334310534F48B819C818134910561F04A
:101C20001EC02B813C812334310581F08B819C8146
:101C30008434910581F013C0EBE3F0E08A81808366
:101C40000EC0E8E3F0E08A81808309C0E5E3F0E0BC
:101C50008A81808304C0E2E3F0E08A8180830F9070
:101C60000F900F900F90CF91DF910895DF93CF9356
:101C700000D000D00F92CDB7DEB789837B836A8313
:101C80008981282F30E03D832C838C819D81823493
:101C90009105E9F02C813D812334310534F48C81A8
:101CA0009D818134910561F026C02C813D812334D2
:101CB0003105A1F08C819D8184349105B1F01BC068
:101CC000E9E3F0E08081EA81FB81808314C0E6E3F0
:101CD000F0E08081EA81FB8180830DC0E3E3F0E0E6
:101CE0008081EA81FB81808306C0E0E3F0E08081AF
:101CF000EA81FB8180830F900F900F900F900F90DF
:101D0000CF91DF910895DF93CF93CDB7DEB7AFE5E5
:101D1000B0E0EFE5F0E0808180688C93CF91DF91B7
:101D20000895DF93CF93CDB7DEB7AFE5B0E0EFE531
:101D3000F0E080818F778C93CF91DF910895DF93CE
:101D4000CF93CDB7DEB782E463E041E00E941A0B87
:101D500083E063E00E941B0981E00E94BE0980913C
:101D6000680090916900A0916A00B0916B00BC017D
:101D7000CD0120E030E048EC52E40E941903DC0180
:101D8000CB01BC01CD0120E030E04FE753E40E94DD
:101D90001F02DC01CB01BC01CD010E944900DC0126
:101DA000CB010E94B00984E465E041E00E941A0B77
:101DB00084E465E040E00E94240C84E466E041E0B5
:101DC0000E941A0B84E466E040E00E94240C84E444
:101DD00067E041E00E941A0B84E467E040E00E9463
:101DE000240CCF91DF910895DF93CF93CDB7DEB769
:101DF00082E463E041E00E941A0B83E063E00E940A
:101E00001B0981E00E94BE098091680090916900E1
:101E1000A0916A00B0916B00BC01CD0120E030E0E0
:101E200048EC52E40E941903DC01CB01BC01CD0156
:101E300020E030E04FE753E40E941F02DC01CB01B9
:101E4000BC01CD010E944900DC01CB010E94B00918
:101E500084E465E041E00E941A0B84E465E040E020
:101E60000E94240C84E466E041E00E941A0B84E4A2
:101E700066E040E00E94240C84E467E041E00E94B8
:101E80001A0B84E467E041E00E94240CCF91DF91BB
:101E90000895DF93CF93CDB7DEB784E465E041E0EA
:101EA0000E941A0B84E466E041E00E941A0B84E46D
:101EB00065E041E00E94240C84E466E041E00E9479
:101EC000240CCF91DF910895DF93CF9300D0CDB74D
:101ED000DEB789836A8399818A81981730F40E94DA
:101EE0009F0E80E00E94C50A0FC099818A818917E0
:101EF00030F40E94F40E81E00E94C50A05C00E94E1
:101F0000490F82E00E94C50A0F900F90CF91DF9198
:101F100008950F931F93DF93CF93CDB7DEB7C954C6
:101F2000D0400FB6F894DEBF0FBECDBF84E460E0B2
:101F300040E00E941A0B84E461E041E00E941A0B29
:101F400080E00E9471070E94F10A81E069E10E942D
:101F50004F06FE01ED5BFF4F80E090E0A0EAB1E4A8
:101F600080839183A283B3838E01015C1F4FFE01A6
:101F7000ED5BFF4F608171818281938120E030E0D1
:101F80004AEF54E40E941F02DC01CB01F801808378
:101F90009183A283B383FE01FF9660817181828168
:101FA000938120E030E040E85FE30E94250488232D
:101FB0002CF481E090E09EAF8DAF46C0FE01FF960D
:101FC000608171818281938120E03FEF4FE757E488
:101FD0000E94C503181664F5FE01ED5BFF4F60819A
:101FE00071818281938120E030E040E251E40E94DF
:101FF0001F02DC01CB01BC01CD010E944900DC01C4
:10200000CB019EAF8DAF0FC088EC90E09CAF8BAF43
:102010008BAD9CAD0197F1F79CAF8BAF8DAD9EADB5
:1020200001979EAF8DAF8DAD9EAD009769F716C03D
:10203000FE01FF9660817181828193810E94490037
:10204000DC01CB019EAF8DAF8DAD9EAD9AAF89AF58
:1020500089AD9AAD0197F1F79AAF89AF82E06EE151
:102060000E944F0680E090E0A0EAB1E48DAB9EAB09
:10207000AFABB8AF6DA97EA98FA998AD20E030E0D5
:102080004AEF54E40E941F02DC01CB0189AB9AABFA
:10209000ABABBCAB69A97AA98BA99CA920E030E0C5
:1020A00040E85FE30E94250488232CF481E090E05F
:1020B00098AB8FA73FC069A97AA98BA99CA920E0FA
:1020C0003FEF4FE757E40E94C50318164CF56DA982
:1020D0007EA98FA998AD20E030E040E251E40E9453
:1020E0001F02DC01CB01BC01CD010E944900DC01D3
:1020F000CB0198AB8FA70FC088EC90E09EA78DA76F
:102100008DA59EA50197F1F79EA78DA78FA598A9EC
:10211000019798AB8FA78FA598A9009769F714C06E
:1021200069A97AA98BA99CA90E944900DC01CB016D
:1021300098AB8FA78FA598A99CA78BA78BA59CA5CB
:102140000197F1F79CA78BA79E01275B3F4F81E08A
:10215000B9010E949B0680E090E0A0EAB1E48FA361
:1021600098A7A9A7BAA76FA178A589A59AA520E0E5
:1021700030E04AEF54E40E941F02DC01CB018BA344
:102180009CA3ADA3BEA36BA17CA18DA19EA120E0C9
:1021900030E040E85FE30E94250488232CF481E0CE
:1021A00090E09AA389A33FC06BA17CA18DA19EA1C1
:1021B00020E03FEF4FE757E40E94C50318164CF5A7
:1021C0006FA178A589A59AA520E030E040E251E40E
:1021D0000E941F02DC01CB01BC01CD010E9449001D
:1021E000DC01CB019AA389A30FC088EC90E098A3EF
:1021F0008F8F8F8D98A10197F1F798A38F8F89A169
:102200009AA101979AA389A389A19AA1009769F736
:1022100014C06BA17CA18DA19EA10E944900DC018C
:10222000CB019AA389A389A19AA19E8F8D8F8D8DB1
:102230009E8D0197F1F79E8F8D8F0E94DF0AFE0120
:10224000E95BFF4F8083FE01E95BFF4F80818230B5
:1022500039F4FE01E75BFF4F80810E94C50A08C088
:10226000FE01E75BFF4FDE01A95BBF4F8C918083CE
:102270000E94DF0AFE01E85BFF4F8083FE01E75BFF
:10228000FF4F9081FE01E85BFF4F8081692F0E9424
:10229000640FFE01E75BFF4F908181E0692F0E9490
:1022A0004F0680E090E0A0EAB1E4898F9A8FAB8F6F
:1022B000BC8F698D7A8D8B8D9C8D20E030E04AEF4C
:1022C00054E40E941F02DC01CB018D8B9E8BAF8BEF
:1022D000B88F6D897E898F89988D20E030E040E845
:1022E0005FE30E94250488232CF481E090E09C8B1E
:1022F0008B8B3FC06D897E898F89988D20E03FEF61
:102300004FE757E40E94C50318164CF5698D7A8D86
:102310008B8D9C8D20E030E040E251E40E941F0252
:10232000DC01CB01BC01CD010E944900DC01CB01E5
:102330009C8B8B8B0FC088EC90E09A8B898B898962
:102340009A890197F1F79A8B898B8B899C890197E0
:102350009C8B8B8B8B899C89009769F714C06D8946
:102360007E898F89988D0E944900DC01CB019C8B6E
:102370008B8B8B899C89988B8F878F859889019708
:10238000F1F7988B8F87FE01E85BFF4F82E0608159
:102390000E944F0680E090E0A0EAB1E48B879C8722
:1023A000AD87BE876B857C858D859E8520E030E07E
:1023B0004AEF54E40E941F02DC01CB018F8398870F
:1023C000A987BA876F81788589859A8520E030E072
:1023D00040E85FE30E94250488232CF481E090E02C
:1023E0009E838D833FC06F81788589859A8520E0A3
:1023F0003FEF4FE757E40E94C50318164CF56B8575
:102400007C858D859E8520E030E040E251E40E948D
:102410001F02DC01CB01BC01CD010E944900DC019F
:10242000CB019E838D830FC088EC90E09C838B83CF
:102430008B819C810197F1F79C838B838D819E8199
:1024400001979E838D838D819E81009769F7F5CEDC
:102450006F81788589859A850E944900DC01CB01CE
:102460009E838D838D819E819A83898389819A81C0
:102470000197F1F79A838983E0CE2F923F924F9292
:102480005F926F927F928F929F92AF92BF92CF9204
:10249000DF92EF92FF920F931F93CF93DF93CDB70D
:1024A000DEB7CA1BDB0B0FB6F894DEBF0FBECDBF85
:1024B00009942A88398848885F846E847D848C8456
:1024C0009B84AA84B984C884DF80EE80FD800C815F
:1024D0001B81AA81B981CE0FD11D0FB6F894DEBF42
:0C24E0000FBECDBFED010895F894FFCFB2
:0C24EC0000000000000000000000A04202
:00000001FF
