:100000000C942A000C9447000C9447000C94470071
:100010000C9447000C9447000C9447000C94470044
:100020000C9447000C9447000C9447000C94470034
:100030000C9447000C9447000C9447000C94470024
:100040000C9447000C9447000C9447000C94470014
:100050000C94470011241FBECFE5D8E0DEBFCDBF12
:1000600012E0A0E6B0E0E2EDF2E302C005900D92EE
:10007000A431B107D9F712E0A4E1B2E001C01D92AA
:10008000A632B107E1F70E94CC180C9467190C94C2
:100090000000EF92FF920F931F937B018C0120E0F1
:1000A00030E040E05FE40E94490388238CF0C801FF
:1000B000B70120E030E040E05FE40E94C1010E940F
:1000C00007049B01AC01205030404040504806C01E
:1000D000C801B7010E9407049B01AC01B901CA0124
:1000E0001F910F91FF90EF900895A0E0B0E0EBE733
:1000F000F0E00C943019DC012B01FA019C91923054
:1001000008F439C1EB018881823008F433C194309E
:1001100069F4843009F02FC111969C91119789815F
:10012000981709F428C1ABEEB0E025C1843009F47A
:1001300021C18230A9F4923009F01DC19A01AD01AC
:1001400088E0EA010990AE01E90109929E0181501F
:10015000C1F7E201898111969C918923818308C1AD
:10016000923009F407C112962D903C901397EB0141
:100170008A819B811496AD90BD90CD90DC901797AD
:10018000EC80FD800E811F819101281B390BB90184
:1001900037FF04C066277727621B730B6032710537
:1001A0000CF061C0121613066CF537014801062EDB
:1001B00004C096948794779467940A94D2F721E0C8
:1001C00030E040E050E004C0220F331F441F551FB1
:1001D0006A95D2F721503040404050402E213F21B7
:1001E00040235123211531054105510521F021E01E
:1001F00030E040E050E079018A01E628F72808293C
:1002000019293CC0232BD1F1260E371E350146019A
:10021000062E04C096948794779467940A94D2F734
:1002200021E030E040E050E004C0220F331F441FC3
:10023000551F6A95D2F721503040404050402A2146
:100240003B214C215D21211531054105510521F04E
:1002500021E030E040E050E059016A01A628B728CB
:10026000C828D9280BC0821593052CF01C01AA249C
:10027000BB24650103C0EE24FF24870111969C91E5
:10028000D20111968C91981709F445C0992339F041
:10029000A80197012A193B094C095D0906C0A6016E
:1002A00095012E193F09400B510B57FD08C01182D3
:1002B0003382228224833583468357831DC081E0A5
:1002C00081833382228288279927DC01821B930B4A
:1002D000A40BB50B84839583A683B7830DC0220F2F
:1002E000331F441F551F24833583468357838281E0
:1002F000938101979383828324813581468157813D
:10030000DA01C9010197A109B1098F5F9F4FAF4F72
:10031000BF4328F30BC0918333822282EA0CFB1C7B
:100320000C1D1D1DE482F5820683178383E0808304
:10033000248135814681578157FF1AC0C901AA27F8
:1003400097FDA095BA2F81709070A070B0705695EF
:10035000479537952795822B932BA42BB52B848318
:100360009583A683B7838281938101969383828349
:10037000DF0101C0D201CD01CDB7DEB7E2E10C94BF
:100380004C19A0E2B0E0E7ECF1E00C943C19698371
:100390007A838B839C832D833E834F835887E9E048
:1003A000EE2EF12CEC0EFD1ECE010196B7010E943F
:1003B0007F058E010F5E1F4FCE010596B8010E948A
:1003C0007F058A8991E089278A8BC701B801AE0130
:1003D000475E5F4F0E9475000E94AA04A096E6E067
:1003E0000C945819A0E2B0E0E8EFF1E00C943C194D
:1003F00069837A838B839C832D833E834F835887C5
:10040000F9E0EF2EF12CEC0EFD1ECE010196B701A6
:100410000E947F058E010F5E1F4FCE010596B80129
:100420000E947F05C701B801AE01475E5F4F0E9481
:1004300075000E94AA04A096E6E00C945819A0E268
:10044000B0E0E5E2F2E00C94301969837A838B83A3
:100450009C832D833E834F835887CE010196BE0136
:10046000675F7F4F0E947F05CE010596BE016F5EDC
:100470007F4F0E947F059985923088F0898982306C
:10048000C8F0943019F4823051F404C0843029F457
:10049000923081F48BEE90E0C6C0923049F420E0B7
:1004A0009A858A89981321E02A87CE010996BBC0D4
:1004B000823049F420E09A858A89981321E02A8BBA
:1004C000CE014196B0C02D843E844F8458886D88FB
:1004D0007E888F88988CEE24FF248701AA24BB2471
:1004E000650140E050E060E070E0E0E0F0E0C10174
:1004F00081709070892BE9F0E60CF71C081D191D1E
:100500009A01AB012A0D3B1D4C1D5D1D80E090E062
:10051000A0E0B0E0E614F7040805190520F481E036
:1005200090E0A0E0B0E0BA01A901480F591F6A1F8E
:100530007B1FAA0CBB1CCC1CDD1C97FE08C081E0F5
:1005400090E0A0E0B0E0A82AB92ACA2ADB2A3196B6
:10055000E032F10549F0660C771C881C991C569412
:10056000479437942794C3CFFA85EA892B893C892D
:100570008B859C85280F391F2E5F3F4F17C0CA01FE
:1005800081709070892B61F016950795F794E79428
:1005900080E090E0A0E0B0E8E82AF92A0A2B1B2BC3
:1005A00076956795579547952F5F3F4F77FDE7CF36
:1005B0000CC0440F551F661F771F17FD4160EE0CDE
:1005C000FF1C001F111F21503040403090E05907A0
:1005D00090E0690790E4790760F32B8F3C8FDB0193
:1005E000CA018F779070A070B07080349105A1051A
:1005F000B10561F447FD0AC0E114F10401051105DC
:1006000029F0405C5F4F6F4F7F4F40781A8EFE1786
:1006100011F081E08A8F4D8F5E8F6F8F78A383E01A
:10062000898FCE0149960E94AA04A096E2E10C941B
:100630004C19A8E1B0E0EFE1F3E00C943C196983B8
:100640007A838B839C832D833E834F83588789E0F5
:10065000E82EF12CEC0EFD1ECE010196B7010E9492
:100660007F058E010F5E1F4FCE010596B8010E94D7
:100670007F058985823040F08989823028F0C70162
:10068000B8010E94F70501C08FEF6896E6E00C9470
:100690005819A8E1B0E0EFE4F3E00C943C19698349
:1006A0007A838B839C832D833E834F83588789E095
:1006B000E82EF12CEC0EFD1ECE010196B7010E9432
:1006C0007F058E010F5E1F4FCE010596B8010E9477
:1006D0007F058985823040F08989823028F0C70102
:1006E000B8010E94F70501C08FEF6896E6E00C9410
:1006F0005819A8E1B0E0EFE7F3E00C943C196983E6
:100700007A838B839C832D833E834F83588789E034
:10071000E82EF12CEC0EFD1ECE010196B7010E94D1
:100720007F058E010F5E1F4FCE010596B8010E9416
:100730007F058985823040F08989823028F0C701A1
:10074000B8010E94F70501C081E06896E6E00C94CC
:100750005819A8E0B0E0EFEAF3E00C9439199B01D6
:10076000AC0183E08983DA01C9018827B7FD83954D
:100770009927AA27BB27B82E211531054105510518
:1007800019F482E089833AC08823A9F0203080E000
:10079000380780E0480780E8580729F460E070E0F7
:1007A00080E09FEC30C0EE24FF248701E21AF30AB8
:1007B000040B150B02C079018A018EE1C82ED12CE1
:1007C000DC82CB82ED82FE820F831887C801B701DD
:1007D0000E945B0401971816190684F4082E04C0C1
:1007E000EE0CFF1C001F111F0A94D2F7ED82FE824F
:1007F0000F831887C81AD90ADC82CB82BA82CE014D
:1008000001960E94AA042896E9E00C945519ACE0E0
:10081000B0E0EDE0F4E00C94401969837A838B83B7
:100820009C83CE010196BE016B5F7F4F0E947F05C6
:100830008D81823061F1823050F1843021F48E81DB
:10084000882351F12EC02F81388537FD20C06E815D
:100850002F3131051CF06623F9F023C08EE190E0C2
:10086000821B930B29853A854B855C8504C0569580
:100870004795379527958A95D2F76623B1F050951D
:100880004095309521953F4F4F4F5F4F0EC020E070
:1008900030E040E050E009C02FEF3FEF4FEF5FE75F
:1008A00004C020E030E040E050E8B901CA012C96D5
:1008B000E2E00C945C19EF92FF920F931F937B017F
:1008C0008C0180E0E81680E0F80681E0080780E00F
:1008D000180788F48FEFE816F1040105110531F0CF
:1008E00028F088E090E0A0E0B0E017C080E090E061
:1008F000A0E0B0E012C080E0E81680E0F80680E0FA
:10090000080781E0180728F088E190E0A0E0B0E057
:1009100004C080E190E0A0E0B0E020E230E040E000
:1009200050E0281B390B4A0B5B0B04C0169507954A
:10093000F794E7948A95D2F7F701ED50FF4F808145
:10094000281B310941095109C9011F910F91FF90DD
:10095000EF900895DF92EF92FF920F931F93FC01A7
:10096000E480F58006811781D1808081823048F44F
:1009700080E090E0A0E1B0E0E82AF92A0A2B1B2BE6
:10098000A5C0843009F49FC0823021F4EE24FF24F6
:10099000870105C0E114F1040105110519F4E0E037
:1009A000F0E096C0628173819FEF623879070CF0A6
:1009B0005BC022E83FEF261B370B2A3131052CF0B4
:1009C00020E030E040E050E02AC0B801A701022E4C
:1009D00004C076956795579547950A94D2F781E0BC
:1009E00090E0A0E0B0E004C0880F991FAA1FBB1FD1
:1009F0002A95D2F70197A109B1098E219F21A02341
:100A0000B1230097A105B10521F081E090E0A0E0BD
:100A1000B0E09A01AB01282B392B4A2B5B2BDA0172
:100A2000C9018F779070A070B07080349105A105D6
:100A3000B10539F427FF09C0205C3F4F4F4F5F4F8E
:100A400004C0215C3F4F4F4F5F4FE0E0F0E02030AB
:100A5000A0E03A07A0E04A07A0E45A0710F0E1E05E
:100A6000F0E079018A0127C06038710564F5FB0167
:100A7000E158FF4FD801C7018F779070A070B07018
:100A800080349105A105B10539F4E7FE0DC080E47D
:100A900090E0A0E0B0E004C08FE390E0A0E0B0E020
:100AA000E80EF91E0A1F1B1F17FF05C016950795B4
:100AB000F794E794319687E016950795F794E794B5
:100AC0008A95D1F705C0EE24FF248701EFEFF0E00F
:100AD0006E2F679566276795902F9F77D794DD24B3
:100AE000D7948E2F8695492F462B582F5D29B70115
:100AF000CA011F910F91FF90EF90DF900895FC01C4
:100B0000DB01408151812281622F6F7770E0221FCB
:100B10002227221F9381892F880F822B282F30E0D4
:100B2000991F9927991F11969C93119721153105AB
:100B3000A9F5411551056105710511F482E037C031
:100B400082E89FEF13969C938E9312979A01AB01C4
:100B500067E0220F331F441F551F6A95D1F783E0CA
:100B60008C930DC0220F331F441F551F12968D9179
:100B70009C911397019713969C938E931297203014
:100B800080E0380780E0480780E4580758F314965F
:100B90002D933D934D935C93179708952F3F310507
:100BA00079F4411551056105710519F484E08C93C0
:100BB000089564FF03C081E08C9312C01C9210C0A2
:100BC0002F57304013963C932E93129783E08C93CB
:100BD00087E0440F551F661F771F8A95D1F7706411
:100BE00014964D935D936D937C93179708951F937F
:100BF000DC01FB019C91923008F447C08081823077
:100C000008F443C0943051F411961C91843099F546
:100C10008181682F70E0611B71093FC0843021F031
:100C2000923031F48230B9F18181882389F12DC06D
:100C300011961C9111978230F1F081811817D9F427
:100C400012962D913C91139782819381821793077D
:100C500094F028173907BCF014968D919D910D9052
:100C6000BC91A02D248135814681578128173907F1
:100C70004A075B0718F4112341F00AC08217930753
:100C8000A407B50740F4112319F061E070E005C036
:100C90006FEF7FEF02C060E070E0CB011F9108951D
:100CA000DF93CF93CDB7DEB7A7E2B0E0E7E2F0E0A5
:100CB000808180648C93A7E2B0E0E7E2F0E080817D
:100CC0008F778C93A7E2B0E0E7E2F0E080818F7D40
:100CD0008C93A6E2B0E0E6E2F0E0808184608C9341
:100CE000A6E2B0E0E6E2F0E0808182608C93A6E2CA
:100CF000B0E0E6E2F0E0808181608C93A6E2B0E0B3
:100D0000E6E2F0E0808180688C93CF91DF910895D6
:100D1000DF93CF930F92CDB7DEB78983A7E2B0E020
:100D2000E7E2F0E08081807E8C93A7E2B0E0E7E22A
:100D3000F0E090818981892B8C93A6E2B0E0E6E215
:100D4000F0E0808180648C93E6E2F0E0808182951F
:100D50008F70882F90E0817090700097A9F3A6E2C1
:100D6000B0E0E6E2F0E0808180618C93E4E2F0E0C4
:100D7000808191810F90CF91DF910895DF93CF9380
:100D800000D0CDB7DEB71A8229C08A81882F90E0C3
:100D9000FC01ED5FFD4F20818A81882F90E0FC01EE
:100DA000E95FFD4F9081822F692F41E00E946D1015
:100DB0008A81882F90E0FC01ED5FFD4F20818A81C0
:100DC000882F90E0FC01E95FFD4F9081822F692F11
:100DD00041E00E9477118A818F5F8A838A81843003
:100DE000A0F2198229C08981882F90E0FC01E55F7B
:100DF000FD4F20818981882F90E0FC01E15FFD4F4C
:100E00009081822F692F40E00E946D108981882F88
:100E100090E0FC01E55FFD4F20818981882F90E003
:100E2000FC01E15FFD4F9081822F692F41E00E941C
:100E3000771189818F5F898389818430A0F20F9037
:100E40000F90CF91DF910895DF93CF93CDB7DEB7A9
:100E500062970FB6F894DEBF0FBECDBF198A188A0D
:100E6000E9C08889882F90E0FC01ED5FFD4F20816B
:100E70008889882F90E0FC01E95FFD4F9081822FE7
:100E8000692F40E00E9477111F86BAC08F85882F96
:100E900090E0FC01E55FFD4F40818F85882F90E059
:100EA000FC01E15FFD4F90819E012E5E3F4F842F3C
:100EB000692FA9010E9481128A89882349F58889AE
:100EC000482F50E08F85282F30E0CA01880F991FE6
:100ED000880F991F820F931FFC01ED50FE4F8081F8
:100EE000898B16C08F85882F90E0FC01E55FFD4F50
:100EF00040818F85882F90E0FC01E15FFD4F90815C
:100F00009E012E5E3F4F842F692FA9010E948112FE
:100F10008A89882339F380E090E0A0E2B1E48B87EE
:100F20009C87AD87BE876B857C858D859E8520E0FF
:100F300030E04AEF54E40E941F02DC01CB018F83B2
:100F40009887A987BA876F81788589859A8520E0F7
:100F500030E040E85FE30E94790388232CF481E0CD
:100F600090E09E838D833FC06F81788589859A85C7
:100F700020E03FEF4FE757E40E94190318164CF5A5
:100F80006B857C858D859E8520E030E040E251E4D4
:100F90000E941F02DC01CB01BC01CD010E9449006F
:100FA000DC01CB019E838D830FC088EC90E09C8395
:100FB0008B838B819C810197F1F79C838B838D813F
:100FC0009E8101979E838D838D819E81009769F715
:100FD00014C06F81788589859A850E944900DC015B
:100FE000CB019E838D838D819E819A8389838981A4
:100FF0009A810197F1F79A8389838F858F5F8F8715
:101000008F85843008F442CF8889882F90E0FC01D6
:10101000ED5FFD4F20818889882F90E0FC01E95F1A
:10102000FD4F9081822F692F41E00E9477118889BE
:101030008F5F888B8889843008F413CF8989629602
:101040000FB6F894DEBF0FBECDBFCF91DF910895EC
:101050000F931F93DF93CF93CDB7DEB7C455D04026
:101060000FB6F894DEBF0FBECDBF81E460E041E073
:101070000E946D1081E461E041E00E946D1081E406
:1010800062E041E00E946D1083E461E00E9405137C
:10109000FE01EF5AFF4F80E090E0A0EFB1E48083C3
:1010A0009183A283B3838E01035B1F4FFE01EF5A2E
:1010B000FF4F608171818281938120E030E04AEFAF
:1010C00054E40E941F02DC01CB01F801808391836C
:1010D000A283B383FE01E35BFF4F60817181828154
:1010E000938120E030E040E85FE30E9479038823A9
:1010F00044F4FE01E55BFF4F81E090E09183808343
:1011000064C0FE01E35BFF4F608171818281938146
:1011100020E03FEF4FE757E40E94190318160CF048
:1011200043C0FE01EF5AFF4F60817181828193813C
:1011300020E030E040E251E40E941F02DC01CB01DC
:101140008E01055B1F4FBC01CD010E944900DC01EF
:10115000CB01F801918380831FC0FE01E75BFF4F45
:1011600088EC90E091838083FE01E75BFF4F8081F4
:1011700091810197F1F7FE01E75BFF4F9183808337
:10118000DE01A55BBF4FFE01E55BFF4F80819181D2
:10119000019711969C938E93FE01E55BFF4F808132
:1011A00091810097D1F627C08E01055B1F4FFE018C
:1011B000E35BFF4F60817181828193810E944900CE
:1011C000DC01CB01F80191838083DE01A95BBF4F75
:1011D000FE01E55BFF4F808191818D939C93FE0121
:1011E000E95BFF4F808191810197F1F7FE01E95B97
:1011F000FF4F9183808388E30E94630BFE01ED5BC8
:10120000FF4F80E090E0A0E2B1E480839183A2836D
:10121000B3838E01015C1F4FFE01ED5BFF4F6081C8
:1012200071818281938120E030E04AEF54E40E9492
:101230001F02DC01CB01F80180839183A283B38379
:10124000FE01FF96608171818281938120E030E010
:1012500040E85FE30E94790388232CF481E090E06A
:101260009EAF8DAF46C0FE01FF9660817181828185
:10127000938120E03FEF4FE757E40E9419031816CF
:1012800064F5FE01ED5BFF4F608171818281938186
:1012900020E030E040E251E40E941F02DC01CB017B
:1012A000BC01CD010E944900DC01CB019EAF8DAF96
:1012B0000FC088EC90E09CAF8BAF8BAD9CAD0197DD
:1012C000F1F79CAF8BAF8DAD9EAD01979EAF8DAF0B
:1012D0008DAD9EAD009769F716C0FE01FF96608147
:1012E0007181828193810E944900DC01CB019EAF14
:1012F0008DAF8DAD9EAD9AAF89AF89AD9AAD019797
:10130000F1F79AAF89AF8CE00E94630B80E090E028
:10131000A0E2B1E48DAB9EABAFABB8AF6DA97EA937
:101320008FA998AD20E030E04AEF54E40E941F02FC
:10133000DC01CB0189AB9AABABABBCAB69A97AA999
:101340008BA99CA920E030E040E85FE30E9479038C
:1013500088232CF481E090E098AB8FA73FC069A967
:101360007AA98BA99CA920E03FEF4FE757E40E94A0
:10137000190318164CF56DA97EA98FA998AD20E028
:1013800030E040E251E40E941F02DC01CB01BC01CD
:10139000CD010E944900DC01CB0198AB8FA70FC0A3
:1013A00088EC90E09EA78DA78DA59EA50197F1F7EB
:1013B0009EA78DA78FA598A9019798AB8FA78FA5FA
:1013C00098A9009769F714C069A97AA98BA99CA963
:1013D0000E944900DC01CB0198AB8FA78FA598A98B
:1013E0009CA78BA78BA59CA50197F1F79CA78BA722
:1013F00081E00E94630B80E090E0A0E2B1E48FA363
:1014000098A7A9A7BAA76FA178A589A59AA520E052
:1014100030E04AEF54E40E941F02DC01CB018BA3B1
:101420009CA3ADA3BEA36BA17CA18DA19EA120E036
:1014300030E040E85FE30E94790388232CF481E0E8
:1014400090E09AA389A33FC06BA17CA18DA19EA12E
:1014500020E03FEF4FE757E40E94190318164CF5C0
:101460006FA178A589A59AA520E030E040E251E47B
:101470000E941F02DC01CB01BC01CD010E9449008A
:10148000DC01CB019AA389A30FC088EC90E098A35C
:101490008F8F8F8D98A10197F1F798A38F8F89A1D6
:1014A0009AA101979AA389A389A19AA1009769F7A4
:1014B00014C06BA17CA18DA19EA10E944900DC01FA
:1014C000CB019AA389A389A19AA19E8F8D8F8D8D1F
:1014D0009E8D0197F1F79E8F8D8F86E00E94630BA2
:1014E00080E090E0A0E2B1E4898F9A8FAB8FBC8F4F
:1014F000698D7A8D8B8D9C8D20E030E04AEF54E42D
:101500000E941F02DC01CB018D8B9E8BAF8BB88FAD
:101510006D897E898F89988D20E030E040E85FE317
:101520000E94790388232CF481E090E09C8B8B8BC4
:101530003FC06D897E898F89988D20E03FEF4FE70E
:1015400057E40E94190318164CF5698D7A8D8B8D1E
:101550009C8D20E030E040E251E40E941F02DC015B
:10156000CB01BC01CD010E944900DC01CB019C8B69
:101570008B8B0FC088EC90E09A8B898B89899A8934
:101580000197F1F79A8B898B8B899C8901979C8BAA
:101590008B8B8B899C89009769F714C06D897E8934
:1015A0008F89988D0E944900DC01CB019C8B8B8B2D
:1015B0008B899C89988B8F878F8598890197F1F704
:1015C000988B8F8782E00E94630B80E090E0A0E21E
:1015D000B1E48B879C87AD87BE876B857C858D85C5
:1015E0009E8520E030E04AEF54E40E941F02DC01B7
:1015F000CB018F839887A987BA876F817885898582
:101600009A8520E030E040E85FE30E947903882378
:101610002CF481E090E09E838D833FC06F817885BC
:1016200089859A8520E03FEF4FE757E40E94190330
:1016300018164CF56B857C858D859E8520E030E005
:1016400040E251E40E941F02DC01CB01BC01CD014C
:101650000E944900DC01CB019E838D830FC088EC82
:1016600090E09C838B838B819C810197F1F79C8315
:101670008B838D819E8101979E838D838D819E8139
:10168000009769F714C06F81788589859A850E94D3
:101690004900DC01CB019E838D838D819E819A83DD
:1016A000898389819A810197F1F79A838983CC5A3A
:1016B000DF4F0FB6F894DEBF0FBECDBFCF91DF91E5
:1016C0001F910F910895DF93CF93CDB7DEB76D973C
:1016D0000FB6F894DEBF0FBECDBF8D8F81E460E002
:1016E00040E00E94771181E461E040E00E947711C0
:1016F00083E46D8D0E94471381E462E041E00E9423
:10170000771180E090E0A0E8BFE3898F9A8FAB8FDC
:10171000BC8F698D7A8D8B8D9C8D20E030E04AEFF7
:1017200054E40E941F02DC01CB018D8B9E8BAF8B9A
:10173000B88F6D897E898F89988D20E030E040E8F0
:101740005FE30E94790388232CF481E090E09C8B76
:101750008B8B3FC06D897E898F89988D20E03FEF0C
:101760004FE757E40E94190318164CF5698D7A8DDE
:101770008B8D9C8D20E030E040E251E40E941F02FE
:10178000DC01CB01BC01CD010E944900DC01CB0191
:101790009C8B8B8B0FC088EC90E09A8B898B89890E
:1017A0009A890197F1F79A8B898B8B899C8901978C
:1017B0009C8B8B8B8B899C89009769F714C06D89F2
:1017C0007E898F89988D0E944900DC01CB019C8B1A
:1017D0008B8B8B899C89988B8F878F8598890197B4
:1017E000F1F7988B8F8781E462E040E00E947711E7
:1017F00080E090E0A0E2B1E48B879C87AD87BE8754
:101800006B857C858D859E8520E030E04AEF54E431
:101810000E941F02DC01CB018F839887A987BA87BA
:101820006F81788589859A8520E030E040E85FE324
:101830000E94790388232CF481E090E09E838D83BD
:101840003FC06F81788589859A8520E03FEF4FE71B
:1018500057E40E94190318164CF56B857C858D851D
:101860009E8520E030E040E251E40E941F02DC014E
:10187000CB01BC01CD010E944900DC01CB019E835C
:101880008D830FC088EC90E09C838B838B819C813F
:101890000197F1F79C838B838D819E8101979E83B5
:1018A0008D838D819E81009769F714C06F81788543
:1018B00089859A850E944900DC01CB019E838D8336
:1018C0008D819E819A83898389819A810197F1F71D
:1018D0009A8389836D960FB6F894DEBF0FBECDBF95
:1018E000CF91DF910895DF93CF93CDB7DEB76D979A
:1018F0000FB6F894DEBF0FBECDBF8D8F81E461E0DF
:1019000040E00E94771181E460E041E00E9477119D
:1019100083E46D8D0E94471381E462E041E00E9400
:10192000771180E090E0A0E8BFE3898F9A8FAB8FBA
:10193000BC8F698D7A8D8B8D9C8D20E030E04AEFD5
:1019400054E40E941F02DC01CB018D8B9E8BAF8B78
:10195000B88F6D897E898F89988D20E030E040E8CE
:101960005FE30E94790388232CF481E090E09C8B54
:101970008B8B3FC06D897E898F89988D20E03FEFEA
:101980004FE757E40E94190318164CF5698D7A8DBC
:101990008B8D9C8D20E030E040E251E40E941F02DC
:1019A000DC01CB01BC01CD010E944900DC01CB016F
:1019B0009C8B8B8B0FC088EC90E09A8B898B8989EC
:1019C0009A890197F1F79A8B898B8B899C8901976A
:1019D0009C8B8B8B8B899C89009769F714C06D89D0
:1019E0007E898F89988D0E944900DC01CB019C8BF8
:1019F0008B8B8B899C89988B8F878F859889019792
:101A0000F1F7988B8F8781E462E040E00E947711C4
:101A100080E090E0A0E2B1E48B879C87AD87BE8731
:101A20006B857C858D859E8520E030E04AEF54E40F
:101A30000E941F02DC01CB018F839887A987BA8798
:101A40006F81788589859A8520E030E040E85FE302
:101A50000E94790388232CF481E090E09E838D839B
:101A60003FC06F81788589859A8520E03FEF4FE7F9
:101A700057E40E94190318164CF56B857C858D85FB
:101A80009E8520E030E040E251E40E941F02DC012C
:101A9000CB01BC01CD010E944900DC01CB019E833A
:101AA0008D830FC088EC90E09C838B838B819C811D
:101AB0000197F1F79C838B838D819E8101979E8393
:101AC0008D838D819E81009769F714C06F81788521
:101AD00089859A850E944900DC01CB019E838D8314
:101AE0008D819E819A83898389819A810197F1F7FB
:101AF0009A8389836D960FB6F894DEBF0FBECDBF73
:101B0000CF91DF910895DF93CF9300D00F92CDB79F
:101B1000DEB79B838A8319820EC08981282F30E02B
:101B20008A819B81FC01E20FF31F80810E94730C6C
:101B300089818F5F89838981282F30E08A819B8109
:101B4000FC01E20FF31F8081882339F70F900F907B
:101B50000F90CF91DF910895DF93CF93CDB7DEB78C
:101B600060970FB6F894DEBF0FBECDBF988B8F87FE
:101B70007CC0EF85F88980810E94730C8F859889DD
:101B80000196988B8F8780E090E0A0EAB0E48B8785
:101B90009C87AD87BE876B857C858D859E8520E083
:101BA00030E04AEF54E40E941F02DC01CB018F8336
:101BB0009887A987BA876F81788589859A8520E07B
:101BC00030E040E85FE30E94790388232CF481E051
:101BD00090E09E838D833FC06F81788589859A854B
:101BE00020E03FEF4FE757E40E94190318164CF529
:101BF0006B857C858D859E8520E030E040E251E458
:101C00000E941F02DC01CB01BC01CD010E944900F2
:101C1000DC01CB019E838D830FC088EC90E09C8318
:101C20008B838B819C810197F1F79C838B838D81C2
:101C30009E8101979E838D838D819E81009769F798
:101C400014C06F81788589859A850E944900DC01DE
:101C5000CB019E838D838D819E819A838983898127
:101C60009A810197F1F79A838983EF85F8898081BA
:101C7000882F90E0009709F07CCF60960FB6F8941B
:101C8000DEBF0FBECDBFCF91DF910895DF93CF931D
:101C900000D000D0CDB7DEB789836A8389818823DD
:101CA000E1F08A818131C8F48981282F30E03C83BA
:101CB0002B838B819C818130910531F02B813C817C
:101CC0002230310531F009C08A8181580E94630BAE
:101CD00004C08A8181540E94630B0F900F900F9073
:101CE0000F90CF91DF910895DF93CF9300D000D074
:101CF0000F92CDB7DEB79C838B836D838D81882F48
:101D000090E00896880F991F880F991F880F991FD8
:101D10008A838D818830B0F48A810E94630B198296
:101D20000EC08981282F30E08B819C81FC01E20F5D
:101D3000F31F80810E94730C89818F5F8983898161
:101D4000883078F30F900F900F900F900F90CF91F5
:101D5000DF910895DF93CF9300D00F92CDB7DEB718
:101D600089836A834B838981883038F48A816B81C7
:101D70000E94460E89810E94730C0F900F900F9065
:101D8000CF91DF910895EF92FF920F931F93DF930E
:101D9000CF93CDB7DEB7CD59D1400FB6F894DEBFA3
:101DA0000FBECDBFFE01E656FE4F60837183828376
:101DB00093831E821F82188619861D82FE01E656B5
:101DC000FE4F80819181A281B3810097A105B10569
:101DD00019F480E30E94730CFE01E656FE4F8081E9
:101DE0009181A281B381BB230CF064C09E01265671
:101DF0003E4FFE01E656FE4F80819181A281B38164
:101E0000B095A095909581959F4FAF4FBF4FF90129
:101E100080839183A283B3838DE28D834BC0EE8058
:101E2000FF8008851985FE01E656FE4F808191816D
:101E3000A281B3812AE030E040E050E0BC01CD0156
:101E40000E94F318DC01CB01AC01BD01C7019C016C
:101E5000220F331F220F331FCE010196820F931FD3
:101E6000FC01399640835183628373838E01065649
:101E70001E4FFE01E656FE4F80819181A281B38103
:101E80002AE030E040E050E0BC01CD010E94F318B0
:101E9000DA01C901F80180839183A283B3838E8123
:101EA0009F81A885B9850196A11DB11D8E839F8351
:101EB000A887B987FE01E656FE4F80819181A281F5
:101EC000B3810097A105B10509F0A9CF8E819F814B
:101ED000A885B9850197A109B10989839A83AB8344
:101EE000BC8328C08D818D3221F48D810E94730CBA
:101EF0001D8289819A81AB81BC819C01220F331F95
:101F0000220F331FCE010196820F931FFC013996D9
:101F100080819181A281B381805D0E94730C89814F
:101F20009A81AB81BC810197A109B10989839A8308
:101F3000AB83BC8389819A81AB81BC81BB2394F63E
:101F4000C356DE4F0FB6F894DEBF0FBECDBFCF91A4
:101F5000DF911F910F91FF90EF900895DF93CF9342
:101F6000CDB7DEB7ADE2B0E0EDE2F0E080818B7F8F
:101F70008C93ADE2B0E0EDE2F0E08081877F8C935E
:101F8000ADE2B0E0EDE2F0E0808180618C93AEE202
:101F9000B0E0EEE2F0E080818E7F8C93ADE2B0E0C5
:101FA000EDE2F0E080818D7F8C93ADE2B0E0EDE278
:101FB000F0E080818E7F8C93ADE2B0E0EDE2F0E066
:101FC000808180648C93CF91DF910895DF93CF93CC
:101FD000CDB7DEB7ADE2B0E0EDE2F0E080818F7E1C
:101FE0008C93ADE2B0E0EDE2F0E080818F7D8C93E8
:101FF000ADE2B0E0EDE2F0E0808180648C93CF91BF
:10200000DF910895DF93CF930F92CDB7DEB7898329
:10201000EFE2F0E089818083EEE2F0E080818823C6
:10202000DCF7EFE2F0E080810F90CF91DF9108952F
:10203000DF93CF930F92CDB7DEB78983EBE2F0E069
:102040008081829586958770882F90E0817090704E
:102050000097A1F3ECE2F0E0898180830F90CF91AB
:10206000DF910895DF93CF93CDB7DEB7EBE2F0E0D9
:102070008081881F8827881F8130C1F7ECE2F0E05B
:102080008081CF91DF910895DF93CF930F92CDB7E9
:10209000DEB7198289818068898389818460898318
:1020A000898182608983E0E4F0E089818083E9E2CC
:1020B000F0E083E38083AAE2B0E0EAE2F0E080812E
:1020C00080618C93AAE2B0E0EAE2F0E0808188606F
:1020D0008C930F90CF91DF910895DF93CF93CDB77D
:1020E000DEB729970FB6F894DEBF0FBECDBF898348
:1020F0006A834B838B81282F30E039872887888536
:102100009985009709F476C02885398521303105F5
:1021100009F0E4C08981282F30E03F832E838E812F
:102120009F818234910551F12E813F812334310505
:1021300034F48E819F818134910561F0CFC02E816E
:102140003F812334310571F18E819F818434910563
:10215000E9F1C4C0AAE3B0E0EAE3F0E08081482FEF
:102160008A81282F30E081E090E0022E02C0880FA3
:10217000991F0A94E2F7842B8C93B0C0A7E3B0E0D8
:10218000E7E3F0E08081482F8A81282F30E081E06A
:1021900090E0022E02C0880F991F0A94E2F7842B68
:1021A0008C939CC0A4E3B0E0E4E3F0E08081482F8E
:1021B0008A81282F30E081E090E0022E02C0880F53
:1021C000991F0A94E2F7842B8C9388C0A1E3B0E0B6
:1021D000E1E3F0E08081482F8A81282F30E081E020
:1021E00090E0022E02C0880F991F0A94E2F7842B18
:1021F0008C9374C08981282F30E03D832C838C819F
:102200009D818234910561F12C813D81233431051A
:1022100034F48C819D818134910569F05FC02C81FB
:102220003D812334310589F18C819D818434910570
:1022300009F440C053C0AAE3B0E0EAE3F0E08081D3
:10224000482F8A81282F30E081E090E0022E02C0E2
:10225000880F991F0A94E2F7809584238C933EC0DF
:10226000A7E3B0E0E7E3F0E08081482F8A81282FE0
:1022700030E081E090E0022E02C0880F991F0A949E
:10228000E2F7809584238C9329C0A4E3B0E0E4E3D3
:10229000F0E08081482F8A81282F30E081E090E0B3
:1022A000022E02C0880F991F0A94E2F780958423BA
:1022B0008C9314C0A1E3B0E0E1E3F0E08081482F0B
:1022C0008A81282F30E081E090E0022E02C0880F42
:1022D000991F0A94E2F7809584238C9329960FB670
:1022E000F894DEBF0FBECDBFCF91DF910895DF938D
:1022F000CF93CDB7DEB729970FB6F894DEBF0FBEE8
:10230000CDBF89836A834B838B81282F30E0398747
:10231000288788859985009709F476C028853985AE
:102320002130310509F0E4C08981282F30E03F8356
:102330002E838E819F818234910551F12E813F81C0
:102340002334310534F48E819F818134910561F00D
:10235000CFC02E813F812334310571F18E819F8161
:1023600084349105E9F1C4C0ABE3B0E0EBE3F0E005
:102370008081482F8A81282F30E081E090E0022E72
:1023800002C0880F991F0A94E2F7842B8C93B0C087
:10239000A8E3B0E0E8E3F0E08081482F8A81282FAD
:1023A00030E081E090E0022E02C0880F991F0A946D
:1023B000E2F7842B8C939CC0A5E3B0E0E5E3F0E06A
:1023C0008081482F8A81282F30E081E090E0022E22
:1023D00002C0880F991F0A94E2F7842B8C9388C05F
:1023E000A2E3B0E0E2E3F0E08081482F8A81282F69
:1023F00030E081E090E0022E02C0880F991F0A941D
:10240000E2F7842B8C9374C08981282F30E03D83C0
:102410002C838C819D818234910561F12C813D81D9
:102420002334310534F48C819D818134910569F028
:102430005FC02C813D812334310589F18C819D81E0
:102440008434910509F440C053C0ABE3B0E0EBE342
:10245000F0E08081482F8A81282F30E081E090E0F1
:10246000022E02C0880F991F0A94E2F780958423F8
:102470008C933EC0A8E3B0E0E8E3F0E08081482F11
:102480008A81282F30E081E090E0022E02C0880F80
:10249000991F0A94E2F7809584238C9329C0A5E3C1
:1024A000B0E0E5E3F0E08081482F8A81282F30E01A
:1024B00081E090E0022E02C0880F991F0A94E2F793
:1024C000809584238C9314C0A2E3B0E0E2E3F0E0B3
:1024D0008081482F8A81282F30E081E090E0022E11
:1024E00002C0880F991F0A94E2F7809584238C9389
:1024F00029960FB6F894DEBF0FBECDBFCF91DF9106
:102500000895DF93CF9300D000D000D0CDB7DEB7D1
:1025100089836A835C834B838981282F30E03E83E3
:102520002D834D815E814234510559F18D819E810B
:102530008334910534F42D813E812134310569F0D5
:102540005BC04D815E814334510579F18D819E815F
:102550008434910509F43DC04FC0E9E3F0E0808187
:10256000282F30E08A81882F90E0A90102C055957C
:1025700047958A95E2F7CA018170EB81FC818083DF
:102580003BC0E6E3F0E08081282F30E08A81882F8D
:1025900090E0A90102C0559547958A95E2F7CA01D6
:1025A0008170EB81FC81808327C0E3E3F0E08081D0
:1025B000282F30E08A81882F90E0A90102C055952C
:1025C00047958A95E2F7CA018170EB81FC8180838F
:1025D00013C0E0E3F0E08081282F30E08A81882F6B
:1025E00090E0A90102C0559547958A95E2F7CA0186
:1025F0008170EB81FC81808326960FB6F894DEBF54
:102600000FBECDBFCF91DF910895DF93CF9300D060
:1026100000D0CDB7DEB789836A838981282F30E067
:102620003C832B838B819C8182349105D9F02B8153
:102630003C812334310534F48B819C8181349105B4
:1026400061F01EC02B813C812334310581F08B81E8
:102650009C818434910581F013C0EAE3F0E08A8123
:1026600080830EC0E7E3F0E08A81808309C0E4E361
:10267000F0E08A81808304C0E1E3F0E08A81808316
:102680000F900F900F900F90CF91DF910895DF93EF
:10269000CF9300D000D0CDB7DEB789836A8389811C
:1026A000282F30E03C832B838B819C8182349105E1
:1026B000D9F02B813C812334310534F48B819C810A
:1026C0008134910561F01EC02B813C81233431059A
:1026D00081F08B819C818434910581F013C0EBE300
:1026E000F0E08A8180830EC0E8E3F0E08A81808395
:1026F00009C0E5E3F0E08A81808304C0E2E3F0E012
:102700008A8180830F900F900F900F90CF91DF916F
:102710000895DF93CF9300D000D00F92CDB7DEB7EE
:1027200089837B836A838981282F30E03D832C83D2
:102730008C819D8182349105E9F02C813D81233487
:10274000310534F48C819D818134910561F026C07E
:102750002C813D8123343105A1F08C819D8184340D
:102760009105B1F01BC0E9E3F0E08081EA81FB81D3
:10277000808314C0E6E3F0E08081EA81FB818083FE
:102780000DC0E3E3F0E08081EA81FB81808306C035
:10279000E0E3F0E08081EA81FB8180830F900F907D
:1027A0000F900F900F90CF91DF910895DF93CF930B
:1027B000CDB7DEB76C970FB6F894DEBF0FBECDBFB6
:1027C00081E065E00E94460E80E690E00E94AC0D3C
:1027D00080E090E0AAE7B4E4898F9A8FAB8FBC8F3A
:1027E000698D7A8D8B8D9C8D20E030E04AEF54E42A
:1027F0000E941F02DC01CB018D8B9E8BAF8BB88FAB
:102800006D897E898F89988D20E030E040E85FE314
:102810000E94790388232CF481E090E09C8B8B8BC1
:102820003FC06D897E898F89988D20E03FEF4FE70B
:1028300057E40E94190318164CF5698D7A8D8B8D1B
:102840009C8D20E030E040E251E40E941F02DC0158
:10285000CB01BC01CD010E944900DC01CB019C8B66
:102860008B8B0FC088EC90E09A8B898B89899A8931
:102870000197F1F79A8B898B8B899C8901979C8BA7
:102880008B8B8B899C89009769F714C06D897E8931
:102890008F89988D0E944900DC01CB019C8B8B8B2A
:1028A0008B899C89988B8F878F8598890197F1F701
:1028B000988B8F8781E00E94630B81E063E00E9428
:1028C000460E89E690E00E94AC0D82E062E00E9434
:1028D000460E85E790E00E94AC0D80E090E0AAE70C
:1028E000B4E48B879C87AD87BE876B857C858D859F
:1028F0009E8520E030E04AEF54E40E941F02DC0194
:10290000CB018F839887A987BA876F81788589855E
:102910009A8520E030E040E85FE30E947903882355
:102920002CF481E090E09E838D833FC06F81788599
:1029300089859A8520E03FEF4FE757E40E9419030D
:1029400018164CF56B857C858D859E8520E030E0E2
:1029500040E251E40E941F02DC01CB01BC01CD0129
:102960000E944900DC01CB019E838D830FC088EC5F
:1029700090E09C838B838B819C810197F1F79C83F2
:102980008B838D819E8101979E838D838D819E8116
:10299000009769F714C06F81788589859A850E94B0
:1029A0004900DC01CB019E838D838D819E819A83BA
:1029B000898389819A810197F1F79A83898381E0DC
:1029C00090E00E94AC0D6C960FB6F894DEBF0FBE7F
:1029D000CDBFCF91DF910895DF93CF930F92CDB705
:1029E000DEB7898381E463E041E00E946D1081E4F9
:1029F00064E041E00E946D1081E465E041E00E94E6
:102A00006D1089818823C1F481E465E040E00E9473
:102A1000771181E464E040E00E94771181E463E093
:102A200041E00E94771182E065E00E94460E84E852
:102A300090E00E94AC0D35C089818130C1F481E401
:102A400065E040E00E94771181E463E040E00E948D
:102A5000771181E464E041E00E94771182E065E053
:102A60000E94460E8CE890E00E94AC0D1AC089814D
:102A70008230B9F481E463E040E00E94771181E4A0
:102A800064E040E00E94771181E465E041E00E944B
:102A9000771182E063E00E94460E84E990E00E9494
:102AA000AC0D0F90CF91DF910895DF93CF9300D0BD
:102AB0000F92CDB7DEB78A836B8380912502823374
:102AC00019F08B810E9418108A810E9418100E94B0
:102AD0003210898381E00E94630B81E064E00E94F0
:102AE000460E8A81882F90E0A0E0B0E0BC01CD01C5
:102AF0000E94C30E81EA90E00E94AC0D8B81882F6A
:102B000090E0A0E0B0E0BC01CD010E94C30E89813D
:102B10000E94EC140F900F900F90CF91DF910895C9
:102B2000DF93CF93CDB7DEB7E9970FB6F894DEBF4A
:102B30000FBECDBF89AF81E00E94630B87EA90E0B2
:102B40000E94AC0D89AD882F90E0A0E0B0E0BC0100
:102B5000CD010E94C30E80EC0E94630B85EB90E0D8
:102B60000E94AC0D04C00E9424078093250280912E
:102B70002502813321F0809125028233A1F78091D3
:102B80002502813309F48AC080912502823309F439
:102B900085C081E00E94630B82EC90E00E94AC0D46
:102BA00080EC0E94630B80ED90E00E94AC0D80E011
:102BB00090E0AAE7B4E48DAB9EABAFABB8AF6DA924
:102BC0007EA98FA998AD20E030E04AEF54E40E943E
:102BD0001F02DC01CB0189AB9AABABABBCAB69A9E3
:102BE0007AA98BA99CA920E030E040E85FE30E942D
:102BF000790388232CF481E090E098AB8FA73FC045
:102C000069A97AA98BA99CA920E03FEF4FE757E477
:102C10000E94190318164CF56DA97EA98FA998ADCD
:102C200020E030E040E251E40E941F02DC01CB01D1
:102C3000BC01CD010E944900DC01CB0198AB8FA7FC
:102C40000FC088EC90E09EA78DA78DA59EA501974B
:102C5000F1F79EA78DA78FA598A9019798AB8FA78D
:102C60008FA598A9009769F714C069A97AA98BA9BB
:102C70009CA90E944900DC01CB0198AB8FA78FA5CE
:102C800098A99CA78BA78BA59CA50197F1F79CA75A
:102C90008BA71092250289AD0E9490158091250284
:102CA000813309F062C180EC0E94630B8CED90E0EF
:102CB0000E94AC0D04C00E942407809314028091EE
:102CC00014028823C1F380911402813328F080918B
:102CD00014028A3308F487C081E00E94630B82ECFF
:102CE00090E00E94AC0D80EC0E94630B80ED90E0C0
:102CF0000E94AC0D80E090E0AAE7B4E48FA398A70F
:102D0000A9A7BAA76FA178A589A59AA520E030E068
:102D10004AEF54E40E941F02DC01CB018BA39CA369
:102D2000ADA3BEA36BA17CA18DA19EA120E030E04C
:102D300040E85FE30E94790388232CF481E090E06F
:102D40009AA389A33FC06BA17CA18DA19EA120E085
:102D50003FEF4FE757E40E94190318164CF56FA197
:102D600078A589A59AA520E030E040E251E40E94D0
:102D70001F02DC01CB01BC01CD010E944900DC0136
:102D8000CB019AA389A30FC088EC90E098A38F8F02
:102D90008F8D98A10197F1F798A38F8F89A19AA1A0
:102DA00001979AA389A389A19AA1009769F714C0F2
:102DB0006BA17CA18DA19EA10E944900DC01CB01E9
:102DC0009AA389A389A19AA19E8F8D8F8D8D9E8DA7
:102DD0000197F1F79E8F8D8F1092250210921402A9
:102DE00089AD0E949015809114020E94730C80910D
:102DF000140280538093140204C00E94240780931D
:102E00002202809122028823C1F380912202803322
:102E100028F0809122028A3308F489C081E00E9460
:102E2000630B82EC90E00E94AC0D80EC0E94630B7F
:102E300080ED90E00E94AC0D80E090E0AAE7B4E461
:102E4000898F9A8FAB8FBC8F698D7A8D8B8D9C8D7E
:102E500020E030E04AEF54E40E941F02DC01CB0185
:102E60008D8B9E8BAF8BB88F6D897E898F89988D66
:102E700020E030E040E85FE30E94790388232CF4EF
:102E800081E090E09C8B8B8B3FC06D897E898F8920
:102E9000988D20E03FEF4FE757E40E941903181682
:102EA0004CF5698D7A8D8B8D9C8D20E030E040E271
:102EB00051E40E941F02DC01CB01BC01CD010E9444
:102EC0004900DC01CB019C8B8B8B0FC088EC90E020
:102ED0009A8B898B89899A890197F1F79A8B898BCB
:102EE0008B899C8901979C8B8B8B8B899C89009704
:102EF00069F714C06D897E898F89988D0E94490079
:102F0000DC01CB019C8B8B8B8B899C89988B8F8769
:102F10008F8598890197F1F7988B8F8710922502FA
:102F2000109214021092220289AD0E949015809195
:102F300022020E94730C809122028053809322020D
:102F400080911402882F90E09C01220F331FC90149
:102F5000880F991F880F991F820F931F982F8091B8
:102F60002202890F809320021CC0809125028233A7
:102F7000C1F482E00E9418100E9432108093200257
:102F800080EC0E94630B8CED90E00E94AC0D809170
:102F90002002882F90E0A0E0B0E0BC01CD010E94AB
:102FA000C30E80912002843178F080912002893212
:102FB00058F481E466E041E00E946D1081E466E02F
:102FC00041E00E94771195C081E466E041E00E94F3
:102FD0006D1081E466E040E00E94771181E00E947C
:102FE000630B82EC90E00E94AC0D80EC0E94630BBE
:102FF00080ED90E00E94AC0D80E090E0AAE7B4E4A0
:103000008B879C87AD87BE876B857C858D859E85EC
:1030100020E030E04AEF54E40E941F02DC01CB01C3
:103020008F839887A987BA876F81788589859A85E4
:1030300020E030E040E85FE30E94790388232CF42D
:1030400081E090E09E838D833FC06F817885898584
:103050009A8520E03FEF4FE757E40E9419031816C6
:103060004CF56B857C858D859E8520E030E040E2C7
:1030700051E40E941F02DC01CB01BC01CD010E9482
:103080004900DC01CB019E838D830FC088EC90E06A
:103090009C838B838B819C810197F1F79C838B832D
:1030A0008D819E8101979E838D838D819E81009766
:1030B00069F714C06F81788589859A850E944900D7
:1030C000DC01CB019E838D838D819E819A838983D0
:1030D00089819A810197F1F79A8389831092250259
:1030E00010921402109222021092200289AD0E94C6
:1030F00090159091200289AD692F0E945515E9968F
:103100000FB6F894DEBF0FBECDBFCF91DF9108950B
:10311000DF93CF9300D0CDB7DEB783E2898387E01A
:103120000E9488068A838A81882F90E0AA2797FDCB
:10313000A095BA2FBC01CD010E94A903DC01CB01EF
:10314000BC01CD0120E030E040E05FE30E941F02BF
:10315000DC01CB01BC01CD0120E030E040E85FE3C1
:103160000E94C101DC01CB01BC01CD010E944900DC
:10317000DC01CB018A838A810E9490150F900F9009
:10318000CF91DF910895DF93CF93CDB7DEB70E9443
:103190008818CF91DF910895DF93CF93CDB7DEB735
:1031A0000E9428080E94BE060E94D61384E460E0B4
:1031B00040E00E946D1084E461E041E00E946D10E7
:1031C0000E9450060E9444100E94C31810921402DC
:1031D0001092220210922002109225020E942407CF
:1031E0008823E1F3F1CF97FB092E05260ED057FD7A
:1031F00004D014D00AD0001C38F450954095309576
:1032000021953F4F4F4F5F4F0895F6F7909580956A
:10321000709561957F4F8F4F9F4F0895A1E21A2EB1
:10322000AA1BBB1BFD010DC0AA1FBB1FEE1FFF1F6A
:10323000A217B307E407F50720F0A21BB30BE40BBA
:10324000F50B661F771F881F991F1A9469F7609501
:103250007095809590959B01AC01BD01CF010895BB
:103260002F923F924F925F926F927F928F929F9296
:10327000AF92BF92CF92DF92EF92FF920F931F9384
:10328000CF93DF93CDB7DEB7CA1BDB0B0FB6F89435
:10329000DEBF0FBECDBF09942A88398848885F8475
:1032A0006E847D848C849B84AA84B984C884DF80E6
:1032B000EE80FD800C811B81AA81B981CE0FD11DCA
:1032C0000FB6F894DEBF0FBECDBFED010895F894A0
:0232D000FFCF2E
:1032D20057454C434F4D45210054454D50455241B1
:1032E2005455524500434F4E54524F4C205359535C
:1032F20054454D0048454154494E4700434F4F4CB9
:10330200494E47004E4F204F7065726174696F6E6F
:1033120000202D2D3E200043757272656E7420547C
:10332200656D703A00312E4E657720322E4F6C64F7
:10333200200057524F4E4720494E505554202100ED
:1033420054525920414741494E2021004465736936
:103352007265642054656D703A2000000000000020
:103362000000000001020203030303040404040436
:1033720004040405050505050505050505050505FE
:1033820005050506060606060606060606060606DE
:1033920006060606060606060606060606060606CB
:1033A20006060607070707070707070707070707AE
:1033B200070707070707070707070707070707079B
:1033C200070707070707070707070707070707078B
:1033D200070707070707070707070707070707077B
:1033E200070707080808080808080808080808085E
:1033F200080808080808080808080808080808084B
:10340200080808080808080808080808080808083A
:10341200080808080808080808080808080808082A
:10342200080808080808080808080808080808081A
:10343200080808080808080808080808080808080A
:1034420008080808080808080808080808080808FA
:1034520008080808080808080808080808080808EA
:103462000808083738392F3435362A3132332D439C
:10347200303D2B4242424200010203424242420498
:043482000506070034
:00000001FF
